:100000000C9434000C9448000C9448000C94480064
:100010000C9448000C9448000C9448000C94480040
:100020000C9448000C9448000C9448000C94480030
:100030000C9448000C9448000C9448000C94480020
:100040000C9448000C9448000C9448000C94480010
:100050000C9448000C9448000C9448000C94480000
:100060000C9448000C94480011241FBECFEFD8E038
:10007000DEBFCDBF21E0A0E0B1E001C01D92A13004
:10008000B207E1F70E9446000C9481000E944A00EA
:100090000C9400001F938FB7F89490910001913059
:1000A00009F425C091E0909300018FBF299A219A0D
:1000B00012E020E030E047EF5FE36BE774E013B954
:1000C000F901D901CA010197F1F791E0E937F1058A
:1000D000A207B30708F0912D9170EF5FFF4FAF4F6C
:1000E000BF4F903079F7CB010197F1F7E8CF8FBF81
:1000F0000E947E000E9480000E947A000E947C0084
:06010000FFCFF894FFCFD1
:00000001FF
